:020000040000FA
:06000000C8EF00F0120041
:020006001200E6
:0600080016EF00F01200EB
:02000E000000F0
:0600180025EF00F01200CC
:02001E000100DF
:0C0020000E0000006C0000000200000058
:04002C00DACFE4FF44
:10003000E2CFDAFFE652F2A202D0838EF292F2B45D
:10004000F294E552E5CFDAFF1100D8CFE4FFE0CF1C
:10005000E4FFE46EDACFE4FFE2CFDAFFE65210000D
:10006000E552E5CFDAFFE550E5CFE0FFE5CFD8FF79
:1000700010009EAAFED79E9AAE5000D01200D9CF93
:10008000E6FFE1CFD9FF080EE126D950010FE96E56
:10009000DACFEAFF450EEE6E430EEE6E480EEE6EC0
:1000A0004F0EEE6E3A0EEE6E780EEE6EEE6AD08E5B
:1000B000A00EF26E956A010E936E816AFFD7080E4C
:1000C000E15C02E2E16AE552E16EE552E7CFD9FF79
:0200D00012001C
:0E00D2001E0EF66E000EF76E000EF86E0001A8
:1000E0000900F550656F0900F550666F03E165671B
:1000F00001D03DD00900F550606F0900F550616FE7
:100100000900F550626F09000900F550E96E090019
:10011000F550EA6E090009000900F550636F090007
:10012000F550646F09000900F6CF67F0F7CF68F06B
:10013000F8CF69F060C0F6FF61C0F7FF62C0F8FF5A
:100140000001635302E1645307E00900F550EE6ECD
:100150006307F8E26407F9D767C0F6FF68C0F7FFE6
:1001600069C0F8FF00016507000E665BBFD712008B
:10017000000EF36E00EE00F0060E01D81200EA60E9
:1001800002D0EE6AFCD7F350E9601200EE6AFCD7A9
:1001900015EE00F025EE00F0F86A019C69EC00F025
:0C01A00003EC00F03FEC00F0FBD7120075
:00000001FF
