:020000040000FA
:06000000D5EF01F0120033
:020006001200E6
:0600080022EF00F01200DF
:02000E00D59E7D
:04001000F29A12004E
:020014000000EA
:06001800A4EF00F012004D
:02001E000100DF
:0C002000140000006C0000000200000052
:04002C00CE0EE66EA0
:10003000E66A8DEC01F0E552E55200016C2B000EF2
:100040006D231200DACFE4FFE2CFDAFFE9CFE4FF5D
:10005000EACFE4FFF6CFE4FFF7CFE4FFF5CFE4FF0C
:10006000F3CFE4FFF4CFE4FFFACFE4FF00EE00F0BB
:10007000020EE80403E3EECFE4FFFBD700EE02F04C
:10008000020EE80403E3EECFE4FFFBD7E652F2A250
:1000900008D0DF0EE66EA9EC01F0E552C7DFF17C77
:1000A000F292F2A42DD00001D8906D5104E6820E98
:1000B0006C5D030E6D5902E2B9DF21D0D8906D510D
:1000C00004E6820E6C5D030E6D590CE3D8906D5101
:1000D00004E68C0E6C5D030E6D5904E28188838EFC
:1000E000A5DF0DD08C0E6C6F030E6D6F6C516D1112
:1000F00006E08198839E6C6B6D6B07EC00F0F294C8
:10010000E55200EE03F0020EE80403E3E5CFEDFF55
:10011000FBD700EE01F0020EE80403E3E5CFEDFFAC
:10012000FBD7E5CFFAFFE5CFF4FFE5CFF3FFE5CF4F
:10013000F5FFE5CFF7FFE5CFF6FFE5CFEAFFE5CF27
:10014000E9FFE5CFDAFF1100D8CFE4FFE0CFE4FF0D
:10015000E46EDACFE4FFE2CFDAFFE6521000E552B8
:10016000E5CFDAFFE550E5CFE0FFE5CFD8FF10009F
:100170009EAAFED79E9AAE5000D01200D9CFE6FFBD
:10018000E1CFD9FF080EE126D950010FE96EDACF91
:10019000EAFF450EEE6E430EEE6E480EEE6E4F0E0B
:1001A000EE6E3A0EEE6E780EEE6EEE6AD08EA00E09
:1001B000F26E956A836A010E936E816A810EE66E15
:1001C000E66A3C0EE66E48EC01F0E552E552E55277
:1001D000010EC26E3E0EC16E860EC06EFFD7080EB7
:1001E000E15C02E2E16AE552E16EE552E7CFD9FF58
:0201F0001200FB
:0E01F2001E0EF66E000EF76E000EF86E000187
:100200000900F550656F0900F550666F03E16567F9
:1002100001D03DD00900F550606F0900F550616FC5
:100220000900F550626F09000900F550E96E0900F8
:10023000F550EA6E090009000900F550636F0900E6
:10024000F550646F09000900F6CF67F0F7CF68F04A
:10025000F8CF69F060C0F6FF61C0F7FF62C0F8FF39
:100260000001635302E1645307E00900F550EE6EAC
:100270006307F8E26407F9D767C0F6FF68C0F7FFC5
:1002800069C0F8FF00016507000E665BBFD712006A
:10029000D9CFE6FFDACFE6FFE1CFD9FFE2CFDAFF31
:1002A000AC6AAB6AFD0EDBB0AC88DBA202D0AC8CD2
:1002B000AB8CDBB4AC8EDBA602D0AB8801D0AB8AB2
:1002C000DBB8AC849E98DBBAAB86DBAC02D09D8AEF
:1002D00001D09D9A9E9ADBAE02D09D8801D09D9858
:1002E000FB0EDB50AF6EFB0EFC0EDBCF03F003C04A
:1002F00002F0036A0250B06EAC8AAB8E949C948E6E
:10030000AC50100B04E0AC50800B01E1948CE55232
:0A031000E5CFDAFFE7CFD9FF1200B6
:06031A00D9CFE6FFDACFA7
:10032000E6FFE1CFD9FFE2CFDAFFE652E652FC0E5C
:10033000DBCFDEFFDBCFDDFF010EDB50D76EDF5002
:10034000D66EE552E552E552E5CFDAFFE7CFD9FFA9
:02035000120099
:0E035200D9CFE6FFDACFE6FFE1CFD9FFE2CF49
:10036000DAFFFD0EDB507F0BD56ED76AD66AF294AA
:10037000FD0EDBAE02D0F28A01D0F29AD58EE552A4
:0A038000E5CFDAFFE7CFD9FF120046
:06038A00000EF36E00EE10
:1003900000F0060E01D81200EA6002D0EE6AFCD727
:0A03A000F350E9601200EE6AFCD78A
:0603AA0015EE00F025EE47
:1003B00000F0F86A019CF9EC00F003EC00F0BEECF0
:0603C00000F0FBD7120063
:00000001FF
