:020000040000FA
:0600000021EF02F01200E6
:020006000000F8
:060008000FEF00F01200F2
:02000E00C250DE
:08001000020B01E0010E1200D9
:060018006CEF00F0120085
:02001E00DACF37
:10002000E4FFE2CFDAFFE9CFE4FFEACFE4FFF6CF67
:10003000E4FFF7CFE4FFF5CFE4FFF3CFE4FFF4CF25
:10004000E4FFFACFE4FF00EE04F0020EE80403E35D
:10005000EECFE4FFFBD700EE00F0040EE80403E36C
:10006000EECFE4FFFBD7E652F2B202D0F2B200D0FC
:10007000F2A40ED0950EE66EDEEC01F0E5527A0E9B
:10008000E66EE10EE66EC2EC01F0E552E552F29446
:10009000E55200EE03F0040EE80403E3E5CFEDFFC4
:1000A000FBD700EE05F0020EE80403E3E5CFEDFF19
:1000B000FBD7E5CFFAFFE5CFF4FFE5CFF3FFE5CFC0
:1000C000F5FFE5CFF7FFE5CFF6FFE5CFEAFFE5CF98
:1000D000E9FFE5CFDAFF1100D8CFE4FFE0CFE4FF7E
:1000E000E46EDACFE4FFE2CFDAFFE6521000E55229
:1000F000E5CFDAFFE550E5CFE0FFE5CFD8FF100010
:100100009EAAFED79E9AAE5000D01200D9CFE6FF2D
:10011000E1CFD9FF080EE126D950010FE96EDACF01
:10012000EAFF450EEE6E430EEE6E480EEE6E4F0E7B
:10013000EE6E3A0EEE6E780EEE6EEE6AD08EA00E79
:10014000F26E956A836A030E936E816A810EE66E83
:10015000E66A3C0EE66E57EC01F0E552E552E552D8
:10016000010EC26E3E0EC16E860EC06E950EE66E1C
:10017000DEEC01F0E5527A0EE66EE10EE66EC2ECC0
:1001800001F0E552E552BCDFDF6E6C0EDF5C03E18F
:10019000080E816E18D0640EDF5C02E1816A13D014
:1001A000710EDF5C08E1320E00016A256A6F000EF5
:1001B0006B216B6F08D0660EDF5C05E10001320E2B
:1001C0006A5F000E6B5B060EDFCFDBFFD950010FBD
:1001D000E66E000EDA20E66E9CEC01F0E552E55288
:1001E00038EC02F007EC00F0000901E0FBD72FEC3F
:1001F00002F0F3CF6AF0F4CF6BF0C5D7080EE15CE4
:1002000002E2E16AE552E16EE552E7CFD9FF120062
:10021000060EF66E000EF76E000EF86E0001090075
:10022000F550656F0900F550666F03E1656701D011
:100230003DD00900F550606F0900F550616F09006D
:10024000F550626F09000900F550E96E0900F5509C
:10025000EA6E090009000900F550636F0900F550C6
:10026000646F09000900F6CF67F0F7CF68F0F8CFA8
:1002700069F060C0F6FF61C0F7FF62C0F8FF0001DF
:10028000635302E1645307E00900F550EE6E630723
:10029000F8E26407F9D767C0F6FF68C0F7FF69C0E6
:0E02A000F8FF00016507000E665BBFD7120075
:0202AE00D9CFA6
:1002B000E6FFDACFE6FFE1CFD9FFE2CFDAFFAC6AA3
:1002C000AB6AFD0EDBB0AC88DBA202D0AC8CAB8C91
:1002D000DBB4AC8EDBA602D0AB8801D0AB8ADBB836
:1002E000AC849E98DBBAAB86DBAC02D09D8A01D091
:1002F0009D9A9E9ADBAE02D09D8801D09D98FB0E00
:10030000DB50AF6EFB0EFC0EDBCF01F001C000F046
:10031000016A0050B06EAC8AAB8E949C948EAC5047
:10032000100B04E0AC50800B01E1948CE552E5CF5A
:08033000DAFFE7CFD9FF12004C
:08033800D9CFE6FFDACFE6FFA2
:10034000E1CFD9FFE2CFDAFFACA2FED7FC0EDBCFC4
:10035000E9FFFD0EDBCFEAFFEF50E66EFAEC01F0AD
:10036000E552FC0EDBCFE9FFDB2AFD0EDBCFEAFF17
:1003700001E3DB2AEF50E8E1E552E5CFDAFFE7CF12
:04038000D9FF12008F
:0C038400D9CFE6FFDACFE6FFE1CFD9FFCA
:10039000E2CFDAFFE652E652FC0EDBCFDEFFDBCF28
:1003A000DDFF010EDB50D76EDF50D66EE552E55211
:0C03B000E552E5CFDAFFE7CFD9FF1200DD
:0403BC00D9CFE6FFB0
:1003C000DACFE6FFE1CFD9FFE2CFDAFFFD0EDB5057
:1003D0007F0BD56ED76AD66AF294FD0EDBAE02D0E3
:1003E000F28A01D0F29AD58EE552E5CFDAFFE7CF57
:0403F000D9FF12001F
:0C03F400D9CFE6FFDACFE6FFE1CFD9FF5A
:10040000E2CFDAFFACAC04D0AC9000016CB3AC80AE
:10041000FD0EDB50AD6EE552E5CFDAFFE7CFD9FF39
:020420001200C8
:0E042200000EF36E00EE00F0060E01D8120080
:10043000EA6002D0EE6AFCD7F350E9601200EE6A7F
:02044000FCD7E7
:0E04420015EE00F025EE00F0F86A059C08ECBF
:0E04500001F03AEC02F086EC00F0FBD712004F
:02045E00C45088
:10046000036E026AC3500210F36E03C0F4FF120061
:04047000C282120032
:02047400120074
:00000001FF
