:020000040000FA
:060000001CEF02F01200EB
:020006000000F8
:060008000FEF00F01200F2
:02000E00C250DE
:08001000020B01E0010E1200D9
:060018007EEF00F0120073
:02001E00DACF37
:10002000E4FFE2CFDAFFE9CFE4FFEACFE4FFF6CF67
:10003000E4FFF7CFE4FFF5CFE4FFF3CFE4FFF4CF25
:10004000E4FFFACFE4FF00EE04F0020EE80403E35D
:10005000EECFE4FFFBD700EE00F0040EE80403E36C
:10006000EECFE4FFFBD7E652F2A424D0E66A070EF7
:10007000E66EEE0EE66E9DEC01F0E552E552E552BD
:1000800033EC02F007EC00F0000901E0FBD72AECAA
:1000900002F0F3CF6AF0F4CF6BF0950EE66EF0EC61
:1000A00001F0E552600EE66EE66AD4EC01F0E5522E
:1000B000E552F294E55200EE03F0040EE80403E387
:1000C000E5CFEDFFFBD700EE05F0020EE80403E3F9
:1000D000E5CFEDFFFBD7E5CFFAFFE5CFF4FFE5CFA6
:1000E000F3FFE5CFF5FFE5CFF7FFE5CFF6FFE5CF6F
:1000F000EAFFE5CFE9FFE5CFDAFF1100D8CFE4FF53
:10010000E0CFE4FFE46EDACFE4FFE2CFDAFFE652BD
:100110001000E552E5CFDAFFE550E5CFE0FFE5CF8F
:10012000D8FF1000D08EA00EF26E956A836A670E1B
:10013000D76E690ED66E860ED56EE66A070EE66E2F
:10014000EE0EE66E9DEC01F0E552E552E552950E9D
:10015000E66EF0EC01F0E552600EE66EE66AD4EC75
:1001600001F0E552E552FFD70001800E6B150CE15E
:100170007F0E6BAF02D0D89003D06A5D000E6B5932
:1001800003E2010E836E89D07F0E6BAF02D0D89050
:1001900003D06A5D000E6B590CE3FF0E6BAF02D00B
:1001A000D89003D06A5D000E6B5903E2020E836E95
:1001B00074D0FF0E6BAF02D0D89003D06A5D000EF2
:1001C0006B590BE3D8906B5104E67F0E6A5D010E0C
:1001D0006B5903E2040E836E60D0D8906B5104E635
:1001E0007F0E6A5D010E6B590BE3D8906B5104E6EC
:1001F000FF0E6A5D010E6B5903E2080E836E4DD04F
:10020000D8906B5104E6FF0E6A5D010E6B590BE34B
:10021000D8906B5104E67F0E6A5D020E6B5903E2C3
:10022000100E836E3AD0D8906B5104E67F0E6A5D53
:10023000020E6B590BE3D8906B5104E6FF0E6A5D1A
:10024000020E6B5903E2200E836E27D0D8906B51BB
:1002500004E6FF0E6A5D020E6B590BE3D8906B51FA
:1002600004E67F0E6A5D030E6B5903E2400E836E57
:1002700014D0D8906B5104E67F0E6A5D030E6B5963
:100280000BE3D8906B5104E6FF0E6A5D030E6B59C9
:0C02900003E2800E836E01D0836A12002E
:04029C00060EF66EE6
:1002A000000EF76E000EF86E00010900F550656F44
:1002B0000900F550666F03E1656701D03DD0090084
:1002C000F550606F0900F550616F0900F550626FDD
:1002D00009000900F550E96E0900F550EA6E0900C1
:1002E00009000900F550636F0900F550646F0900BB
:1002F0000900F6CF67F0F7CF68F0F8CF69F060C07B
:10030000F6FF61C0F7FF62C0F8FF0001635302E12E
:10031000645307E00900F550EE6E6307F8E26407E6
:10032000F9D767C0F6FF68C0F7FF69C0F8FF0001A2
:0A0330006507000E665BBFD71200E0
:06033A00D9CFE6FFDACF87
:10034000E6FFE1CFD9FFE2CFDAFFC26AC06AFC0E56
:10035000DB407F0B3C0BC26EFC0EDB38F00B300B2E
:10036000006EFB0EDB500F0B0010C16EFD0EDB505C
:10037000040DF350380B016EFD0EDB380F0B070B2D
:10038000006EFD0EDB50800B00100110C06EFC0EE5
:10039000DBAE03D09E9C9D8CF28CC280E552E5CFF3
:0803A000DAFFE7CFD9FF1200DC
:0803A800D9CFE6FFDACFE6FF32
:1003B000E1CFD9FFE2CFDAFFE652E652FC0EDBCF07
:1003C000DEFFDBCFDDFF010EDB50D76EDF50D66ED8
:1003D000E552E552E552E5CFDAFFE7CFD9FF12004B
:1003E000D9CFE6FFDACFE6FFE1CFD9FFE2CFDAFFE0
:1003F000FD0EDB507F0BD56ED76AD66AF294FD0EE8
:10040000DBAE02D0F28A01D0F29AD58EE552E5CF6A
:08041000DAFFE7CFD9FF12006B
:08041800000EF36E00EE00F08F
:10042000060E01D81200EA6002D0EE6AFCD7F35043
:08043000E9601200EE6AFCD73E
:0804380015EE00F025EE00F0C6
:10044000F86A059C4EEC01F035EC02F092EC00F0FD
:04045000FBD71200C4
:0C045400C450036E026AC3500210F36E25
:0604600003C0F4FF1200CE
:04046600C28212003C
:02046A0012007E
:00000001FF
